{
  "_format": "hh-sol-artifact-1",
  "contractName": "Wallet",
  "sourceName": "contracts/Wallet.sol",
  "abi": [
    {
      "inputs": [
        {
          "internalType": "address[]",
          "name": "_owners",
          "type": "address[]"
        },
        {
          "internalType": "uint256",
          "name": "_threshold",
          "type": "uint256"
        }
      ],
      "stateMutability": "nonpayable",
      "type": "constructor"
    },
    {
      "anonymous": false,
      "inputs": [
        {
          "indexed": false,
          "internalType": "address",
          "name": "_sender",
          "type": "address"
        },
        {
          "indexed": false,
          "internalType": "uint256",
          "name": "_value",
          "type": "uint256"
        }
      ],
      "name": "NewDeposit",
      "type": "event"
    },
    {
      "anonymous": false,
      "inputs": [
        {
          "indexed": false,
          "internalType": "uint256",
          "name": "oldThreshold",
          "type": "uint256"
        },
        {
          "indexed": false,
          "internalType": "uint256",
          "name": "newthreshold",
          "type": "uint256"
        },
        {
          "indexed": false,
          "internalType": "address",
          "name": "sender",
          "type": "address"
        }
      ],
      "name": "NewThreshold",
      "type": "event"
    },
    {
      "anonymous": false,
      "inputs": [
        {
          "indexed": false,
          "internalType": "address",
          "name": "to",
          "type": "address"
        },
        {
          "indexed": false,
          "internalType": "uint256",
          "name": "value",
          "type": "uint256"
        },
        {
          "indexed": false,
          "internalType": "address",
          "name": "sender",
          "type": "address"
        }
      ],
      "name": "NewTransaction",
      "type": "event"
    },
    {
      "anonymous": false,
      "inputs": [
        {
          "indexed": false,
          "internalType": "address",
          "name": "newOwner",
          "type": "address"
        },
        {
          "indexed": false,
          "internalType": "address",
          "name": "sender",
          "type": "address"
        }
      ],
      "name": "OwnerAdded",
      "type": "event"
    },
    {
      "anonymous": false,
      "inputs": [
        {
          "indexed": false,
          "internalType": "address",
          "name": "removed",
          "type": "address"
        },
        {
          "indexed": false,
          "internalType": "address",
          "name": "sender",
          "type": "address"
        }
      ],
      "name": "OwnerRemoved",
      "type": "event"
    },
    {
      "inputs": [
        {
          "internalType": "uint256",
          "name": "_index",
          "type": "uint256"
        }
      ],
      "name": "addOwnerApproval",
      "outputs": [],
      "stateMutability": "nonpayable",
      "type": "function"
    },
    {
      "inputs": [
        {
          "internalType": "address",
          "name": "_newOwner",
          "type": "address"
        }
      ],
      "name": "addOwnerRequest",
      "outputs": [],
      "stateMutability": "nonpayable",
      "type": "function"
    },
    {
      "inputs": [],
      "name": "getOwnersAddress",
      "outputs": [
        {
          "internalType": "address[]",
          "name": "",
          "type": "address[]"
        }
      ],
      "stateMutability": "view",
      "type": "function"
    },
    {
      "inputs": [
        {
          "internalType": "uint256",
          "name": "",
          "type": "uint256"
        }
      ],
      "name": "owners",
      "outputs": [
        {
          "internalType": "address",
          "name": "",
          "type": "address"
        }
      ],
      "stateMutability": "view",
      "type": "function"
    },
    {
      "inputs": [],
      "name": "pendingAddOwnerData",
      "outputs": [
        {
          "components": [
            {
              "internalType": "address",
              "name": "add",
              "type": "address"
            },
            {
              "internalType": "uint256",
              "name": "index",
              "type": "uint256"
            },
            {
              "internalType": "uint256",
              "name": "signatures",
              "type": "uint256"
            },
            {
              "internalType": "bool",
              "name": "approved",
              "type": "bool"
            }
          ],
          "internalType": "struct Wallet.AddOwner[]",
          "name": "",
          "type": "tuple[]"
        }
      ],
      "stateMutability": "view",
      "type": "function"
    },
    {
      "inputs": [],
      "name": "pendingRemoveOwnerData",
      "outputs": [
        {
          "components": [
            {
              "internalType": "address",
              "name": "remove",
              "type": "address"
            },
            {
              "internalType": "uint256",
              "name": "index",
              "type": "uint256"
            },
            {
              "internalType": "uint256",
              "name": "signatures",
              "type": "uint256"
            },
            {
              "internalType": "bool",
              "name": "approved",
              "type": "bool"
            }
          ],
          "internalType": "struct Wallet.RemoveOwner[]",
          "name": "",
          "type": "tuple[]"
        }
      ],
      "stateMutability": "view",
      "type": "function"
    },
    {
      "inputs": [],
      "name": "pendingTransactionsData",
      "outputs": [
        {
          "components": [
            {
              "internalType": "address",
              "name": "to",
              "type": "address"
            },
            {
              "internalType": "uint256",
              "name": "value",
              "type": "uint256"
            },
            {
              "internalType": "uint256",
              "name": "index",
              "type": "uint256"
            },
            {
              "internalType": "uint256",
              "name": "signatures",
              "type": "uint256"
            },
            {
              "internalType": "bool",
              "name": "approved",
              "type": "bool"
            }
          ],
          "internalType": "struct Wallet.Transaction[]",
          "name": "",
          "type": "tuple[]"
        }
      ],
      "stateMutability": "view",
      "type": "function"
    },
    {
      "inputs": [],
      "name": "pendingUpdatethresholdData",
      "outputs": [
        {
          "components": [
            {
              "internalType": "uint256",
              "name": "threshold",
              "type": "uint256"
            },
            {
              "internalType": "uint256",
              "name": "index",
              "type": "uint256"
            },
            {
              "internalType": "uint256",
              "name": "signatures",
              "type": "uint256"
            },
            {
              "internalType": "bool",
              "name": "approved",
              "type": "bool"
            }
          ],
          "internalType": "struct Wallet.UpdateThreshold[]",
          "name": "",
          "type": "tuple[]"
        }
      ],
      "stateMutability": "view",
      "type": "function"
    },
    {
      "inputs": [
        {
          "internalType": "uint256",
          "name": "_index",
          "type": "uint256"
        }
      ],
      "name": "removeOwnerApproval",
      "outputs": [],
      "stateMutability": "nonpayable",
      "type": "function"
    },
    {
      "inputs": [
        {
          "internalType": "address",
          "name": "_remove",
          "type": "address"
        }
      ],
      "name": "removeOwnerRequest",
      "outputs": [],
      "stateMutability": "nonpayable",
      "type": "function"
    },
    {
      "inputs": [],
      "name": "threshold",
      "outputs": [
        {
          "internalType": "uint256",
          "name": "",
          "type": "uint256"
        }
      ],
      "stateMutability": "view",
      "type": "function"
    },
    {
      "inputs": [],
      "name": "totalOwners",
      "outputs": [
        {
          "internalType": "uint256",
          "name": "",
          "type": "uint256"
        }
      ],
      "stateMutability": "view",
      "type": "function"
    },
    {
      "inputs": [
        {
          "internalType": "uint256",
          "name": "_index",
          "type": "uint256"
        }
      ],
      "name": "transactionApproval",
      "outputs": [],
      "stateMutability": "nonpayable",
      "type": "function"
    },
    {
      "inputs": [
        {
          "internalType": "address",
          "name": "_to",
          "type": "address"
        },
        {
          "internalType": "uint256",
          "name": "_value",
          "type": "uint256"
        }
      ],
      "name": "transactionRequest",
      "outputs": [],
      "stateMutability": "nonpayable",
      "type": "function"
    },
    {
      "inputs": [
        {
          "internalType": "uint256",
          "name": "_index",
          "type": "uint256"
        }
      ],
      "name": "updatethresholdApproval",
      "outputs": [],
      "stateMutability": "nonpayable",
      "type": "function"
    },
    {
      "inputs": [
        {
          "internalType": "uint256",
          "name": "_newThreshold",
          "type": "uint256"
        }
      ],
      "name": "updatethresholdRequest",
      "outputs": [],
      "stateMutability": "nonpayable",
      "type": "function"
    },
    {
      "stateMutability": "payable",
      "type": "receive"
    }
  ],
  "bytecode": "0x60806040523480156200001157600080fd5b5060405162005137380380620051378339818101604052810190620000379190620004f0565b60008054906101000a900460ff161562000088576040517f08c379a00000000000000000000000000000000000000000000000000000000081526004016200007f9062000727565b60405180910390fd5b6000825111620000cf576040517f08c379a0000000000000000000000000000000000000000000000000000000008152600401620000c6906200069f565b60405180910390fd5b815181111562000116576040517f08c379a00000000000000000000000000000000000000000000000000000000081526004016200010d90620006e3565b60405180910390fd5b600081116200015c576040517f08c379a000000000000000000000000000000000000000000000000000000000815260040162000153906200065b565b60405180910390fd5b60005b8251811015620003f6576000838281518110620001a5577f4e487b7100000000000000000000000000000000000000000000000000000000600052603260045260246000fd5b60200260200101519050600760008273ffffffffffffffffffffffffffffffffffffffff1673ffffffffffffffffffffffffffffffffffffffff16815260200190815260200160002060009054906101000a900460ff16156200023f576040517f08c379a0000000000000000000000000000000000000000000000000000000008152600401620002369062000705565b60405180910390fd5b3073ffffffffffffffffffffffffffffffffffffffff168173ffffffffffffffffffffffffffffffffffffffff161415620002b1576040517f08c379a0000000000000000000000000000000000000000000000000000000008152600401620002a890620006c1565b60405180910390fd5b600073ffffffffffffffffffffffffffffffffffffffff168173ffffffffffffffffffffffffffffffffffffffff16141562000324576040517f08c379a00000000000000000000000000000000000000000000000000000000081526004016200031b906200067d565b60405180910390fd5b6006819080600181540180825580915050600190039060005260206000200160009091909190916101000a81548173ffffffffffffffffffffffffffffffffffffffff021916908373ffffffffffffffffffffffffffffffffffffffff1602179055506001600760008373ffffffffffffffffffffffffffffffffffffffff1673ffffffffffffffffffffffffffffffffffffffff16815260200190815260200160002060006101000a81548160ff021916908315150217905550508080620003ed9062000826565b9150506200015f565b508060018190555060016000806101000a81548160ff021916908315150217905550505062000a82565b600062000437620004318462000772565b62000749565b905080838252602082019050828560208602820111156200045757600080fd5b60005b858110156200048b578162000470888262000495565b8452602084019350602083019250506001810190506200045a565b5050509392505050565b600081519050620004a68162000a4e565b92915050565b600082601f830112620004be57600080fd5b8151620004d084826020860162000420565b91505092915050565b600081519050620004ea8162000a68565b92915050565b600080604083850312156200050457600080fd5b600083015167ffffffffffffffff8111156200051f57600080fd5b6200052d85828601620004ac565b92505060206200054085828601620004d9565b9150509250929050565b600062000559602183620007a1565b91506200056682620008e3565b604082019050919050565b600062000580601883620007a1565b91506200058d8262000932565b602082019050919050565b6000620005a7602483620007a1565b9150620005b4826200095b565b604082019050919050565b6000620005ce601b83620007a1565b9150620005db82620009aa565b602082019050919050565b6000620005f5601883620007a1565b91506200060282620009d3565b602082019050919050565b60006200061c601883620007a1565b91506200062982620009fc565b602082019050919050565b600062000643600d83620007a1565b9150620006508262000a25565b602082019050919050565b6000602082019050818103600083015262000676816200054a565b9050919050565b60006020820190508181036000830152620006988162000571565b9050919050565b60006020820190508181036000830152620006ba8162000598565b9050919050565b60006020820190508181036000830152620006dc81620005bf565b9050919050565b60006020820190508181036000830152620006fe81620005e6565b9050919050565b6000602082019050818103600083015262000720816200060d565b9050919050565b60006020820190508181036000830152620007428162000634565b9050919050565b60006200075562000768565b9050620007638282620007f0565b919050565b6000604051905090565b600067ffffffffffffffff82111562000790576200078f620008a3565b5b602082029050602081019050919050565b600082825260208201905092915050565b6000620007bf82620007c6565b9050919050565b600073ffffffffffffffffffffffffffffffffffffffff82169050919050565b6000819050919050565b620007fb82620008d2565b810181811067ffffffffffffffff821117156200081d576200081c620008a3565b5b80604052505050565b60006200083382620007e6565b91507fffffffffffffffffffffffffffffffffffffffffffffffffffffffffffffffff82141562000869576200086862000874565b5b600182019050919050565b7f4e487b7100000000000000000000000000000000000000000000000000000000600052601160045260246000fd5b7f4e487b7100000000000000000000000000000000000000000000000000000000600052604160045260246000fd5b6000601f19601f8301169050919050565b7f7468726573686f6c64206e6565647320746f206265206d6f7265207468616e2060008201527f3000000000000000000000000000000000000000000000000000000000000000602082015250565b7f4164647265737320302063616e2774206265206f776e65720000000000000000600082015250565b7f5468657265206e6565647320746f206265206d6f7265207468616e2030206f7760008201527f6e65727300000000000000000000000000000000000000000000000000000000602082015250565b7f5468697320616464726573732063616e2774206265206f776e65720000000000600082015250565b7f7468726573686f6c642065786365656473206f776e6572730000000000000000600082015250565b7f4164647265737320616c726561647920616e206f776e65720000000000000000600082015250565b7f77616c6c657420696e2075736500000000000000000000000000000000000000600082015250565b62000a5981620007b2565b811462000a6557600080fd5b50565b62000a7381620007e6565b811462000a7f57600080fd5b50565b6146a58062000a926000396000f3fe6080604052600436106100f75760003560e01c80635975d29d1161008a578063b017747c11610059578063b017747c14610346578063d8d1d3691461036f578063d9deecab14610398578063f103bce7146103c357610137565b80635975d29d146102a05780635e97891d146102c95780636c1da8ce146102f257806383edd9991461031b57610137565b8063243669ad116100c6578063243669ad146101f85780633a253cee1461022357806342cde4e81461024c57806350791c641461027757610137565b8063025e7c271461013c57806311a0f25b1461017957806318c7e102146101a45780631e90807d146101cf57610137565b36610137577f2cb77763bc1e8490c1a904905c4d74b4269919aca114464f4bb4d911e60de364333460405161012d929190613cee565b60405180910390a1005b600080fd5b34801561014857600080fd5b50610163600480360381019061015e91906135f6565b6103ee565b6040516101709190613caa565b60405180910390f35b34801561018557600080fd5b5061018e61042d565b60405161019b9190613d70565b60405180910390f35b3480156101b057600080fd5b506101b96106ca565b6040516101c69190613dd6565b60405180910390f35b3480156101db57600080fd5b506101f660048036038101906101f191906135f6565b61091b565b005b34801561020457600080fd5b5061020d610ae3565b60405161021a9190614018565b60405180910390f35b34801561022f57600080fd5b5061024a60048036038101906102459190613591565b610bb9565b005b34801561025857600080fd5b50610261610e81565b60405161026e9190614018565b60405180910390f35b34801561028357600080fd5b5061029e60048036038101906102999190613591565b610e87565b005b3480156102ac57600080fd5b506102c760048036038101906102c291906135f6565b61114a565b005b3480156102d557600080fd5b506102f060048036038101906102eb91906135f6565b6114ea565b005b3480156102fe57600080fd5b50610319600480360381019061031491906135f6565b611933565b005b34801561032757600080fd5b50610330611e01565b60405161033d9190613d92565b60405180910390f35b34801561035257600080fd5b5061036d600480360381019061036891906135f6565b61209e565b005b34801561037b57600080fd5b50610396600480360381019061039191906135ba565b6123fa565b005b3480156103a457600080fd5b506103ad61268f565b6040516103ba9190613d4e565b60405180910390f35b3480156103cf57600080fd5b506103d86129cf565b6040516103e59190613db4565b60405180910390f35b600681815481106103fe57600080fd5b906000526020600020016000915054906101000a900473ffffffffffffffffffffffffffffffffffffffff1681565b6060600760003373ffffffffffffffffffffffffffffffffffffffff1673ffffffffffffffffffffffffffffffffffffffff16815260200190815260200160002060009054906101000a900460ff166104bb576040517f08c379a00000000000000000000000000000000000000000000000000000000081526004016104b290613f58565b60405180910390fd5b60006104c5612c76565b90506000815167ffffffffffffffff81111561050a577f4e487b7100000000000000000000000000000000000000000000000000000000600052604160045260246000fd5b60405190808252806020026020018201604052801561054357816020015b610530613476565b8152602001906001900390816105285790505b50905060005b82518110156106c157600f83828151811061058d577f4e487b7100000000000000000000000000000000000000000000000000000000600052603260045260246000fd5b6020026020010151815481106105cc577f4e487b7100000000000000000000000000000000000000000000000000000000600052603260045260246000fd5b90600052602060002090600402016040518060800160405290816000820160009054906101000a900473ffffffffffffffffffffffffffffffffffffffff1673ffffffffffffffffffffffffffffffffffffffff1673ffffffffffffffffffffffffffffffffffffffff16815260200160018201548152602001600282015481526020016003820160009054906101000a900460ff1615151515815250508282815181106106a3577f4e487b7100000000000000000000000000000000000000000000000000000000600052603260045260246000fd5b602002602001018190525080806106b990614275565b915050610549565b50809250505090565b6060600760003373ffffffffffffffffffffffffffffffffffffffff1673ffffffffffffffffffffffffffffffffffffffff16815260200190815260200160002060009054906101000a900460ff16610758576040517f08c379a000000000000000000000000000000000000000000000000000000000815260040161074f90613f58565b60405180910390fd5b6000610762612e76565b90506000815167ffffffffffffffff8111156107a7577f4e487b7100000000000000000000000000000000000000000000000000000000600052604160045260246000fd5b6040519080825280602002602001820160405280156107e057816020015b6107cd6134b6565b8152602001906001900390816107c55790505b50905060005b825181101561091257600d83828151811061082a577f4e487b7100000000000000000000000000000000000000000000000000000000600052603260045260246000fd5b602002602001015181548110610869577f4e487b7100000000000000000000000000000000000000000000000000000000600052603260045260246000fd5b90600052602060002090600402016040518060800160405290816000820154815260200160018201548152602001600282015481526020016003820160009054906101000a900460ff1615151515815250508282815181106108f4577f4e487b7100000000000000000000000000000000000000000000000000000000600052603260045260246000fd5b6020026020010181905250808061090a90614275565b9150506107e6565b50809250505090565b600760003373ffffffffffffffffffffffffffffffffffffffff1673ffffffffffffffffffffffffffffffffffffffff16815260200190815260200160002060009054906101000a900460ff166109a7576040517f08c379a000000000000000000000000000000000000000000000000000000000815260040161099e90613f58565b60405180910390fd5b6109af610ae3565b8111156109f1576040517f08c379a00000000000000000000000000000000000000000000000000000000081526004016109e890613ed8565b60405180910390fd5b60008111610a34576040517f08c379a0000000000000000000000000000000000000000000000000000000008152600401610a2b90613e78565b60405180910390fd5b600d604051806080016040528083815260200160035481526020016000815260200160001515815250908060018154018082558091505060019003906000526020600020906004020160009091909190915060008201518160000155602082015181600101556040820151816002015560608201518160030160006101000a81548160ff0219169083151502179055505050600160036000828254610ad991906141a3565b9250508190555050565b60008060005b600680549050811015610bb157600073ffffffffffffffffffffffffffffffffffffffff1660068281548110610b48577f4e487b7100000000000000000000000000000000000000000000000000000000600052603260045260246000fd5b9060005260206000200160009054906101000a900473ffffffffffffffffffffffffffffffffffffffff1673ffffffffffffffffffffffffffffffffffffffff1614610b9e57600182610b9b91906141a3565b91505b8080610ba990614275565b915050610ae9565b508091505090565b600760003373ffffffffffffffffffffffffffffffffffffffff1673ffffffffffffffffffffffffffffffffffffffff16815260200190815260200160002060009054906101000a900460ff16610c45576040517f08c379a0000000000000000000000000000000000000000000000000000000008152600401610c3c90613f58565b60405180910390fd5b600760008273ffffffffffffffffffffffffffffffffffffffff1673ffffffffffffffffffffffffffffffffffffffff16815260200190815260200160002060009054906101000a900460ff16610cd1576040517f08c379a0000000000000000000000000000000000000000000000000000000008152600401610cc890613e98565b60405180910390fd5b60006001610cdd610ae3565b610ce791906141f9565b11610d27576040517f08c379a0000000000000000000000000000000000000000000000000000000008152600401610d1e90613f38565b60405180910390fd5b6001546001610d34610ae3565b610d3e91906141f9565b1015610d7f576040517f08c379a0000000000000000000000000000000000000000000000000000000008152600401610d7690613e38565b60405180910390fd5b600e60405180608001604052808373ffffffffffffffffffffffffffffffffffffffff16815260200160045481526020016000815260200160001515815250908060018154018082558091505060019003906000526020600020906004020160009091909190915060008201518160000160006101000a81548173ffffffffffffffffffffffffffffffffffffffff021916908373ffffffffffffffffffffffffffffffffffffffff160217905550602082015181600101556040820151816002015560608201518160030160006101000a81548160ff0219169083151502179055505050600160046000828254610e7791906141a3565b9250508190555050565b60015481565b600760003373ffffffffffffffffffffffffffffffffffffffff1673ffffffffffffffffffffffffffffffffffffffff16815260200190815260200160002060009054906101000a900460ff16610f13576040517f08c379a0000000000000000000000000000000000000000000000000000000008152600401610f0a90613f58565b60405180910390fd5b600760008273ffffffffffffffffffffffffffffffffffffffff1673ffffffffffffffffffffffffffffffffffffffff16815260200190815260200160002060009054906101000a900460ff1615610fa0576040517f08c379a0000000000000000000000000000000000000000000000000000000008152600401610f9790613fb8565b60405180910390fd5b3073ffffffffffffffffffffffffffffffffffffffff168173ffffffffffffffffffffffffffffffffffffffff16141580156110095750600073ffffffffffffffffffffffffffffffffffffffff168173ffffffffffffffffffffffffffffffffffffffff1614155b611048576040517f08c379a000000000000000000000000000000000000000000000000000000000815260040161103f90613ef8565b60405180910390fd5b600f60405180608001604052808373ffffffffffffffffffffffffffffffffffffffff16815260200160055481526020016000815260200160001515815250908060018154018082558091505060019003906000526020600020906004020160009091909190915060008201518160000160006101000a81548173ffffffffffffffffffffffffffffffffffffffff021916908373ffffffffffffffffffffffffffffffffffffffff160217905550602082015181600101556040820151816002015560608201518160030160006101000a81548160ff021916908315150217905550505060016005600082825461114091906141a3565b9250508190555050565b600760003373ffffffffffffffffffffffffffffffffffffffff1673ffffffffffffffffffffffffffffffffffffffff16815260200190815260200160002060009054906101000a900460ff166111d6576040517f08c379a00000000000000000000000000000000000000000000000000000000081526004016111cd90613f58565b60405180910390fd5b60001515600b60003373ffffffffffffffffffffffffffffffffffffffff1673ffffffffffffffffffffffffffffffffffffffff168152602001908152602001600020600083815260200190815260200160002060009054906101000a900460ff1615151461127a576040517f08c379a000000000000000000000000000000000000000000000000000000000815260040161127190613f78565b60405180910390fd5b6000600f82815481106112b6577f4e487b7100000000000000000000000000000000000000000000000000000000600052603260045260246000fd5b9060005260206000209060040201905060008160000160009054906101000a900473ffffffffffffffffffffffffffffffffffffffff1690508160030160009054906101000a900460ff1615611341576040517f08c379a000000000000000000000000000000000000000000000000000000000815260040161133890613f18565b60405180910390fd5b600182600201600082825461135691906141a3565b925050819055506001600b60003373ffffffffffffffffffffffffffffffffffffffff1673ffffffffffffffffffffffffffffffffffffffff168152602001908152602001600020600085815260200190815260200160002060006101000a81548160ff0219169083151502179055506001548260020154106114e5576006819080600181540180825580915050600190039060005260206000200160009091909190916101000a81548173ffffffffffffffffffffffffffffffffffffffff021916908373ffffffffffffffffffffffffffffffffffffffff1602179055506001600760008373ffffffffffffffffffffffffffffffffffffffff1673ffffffffffffffffffffffffffffffffffffffff16815260200190815260200160002060006101000a81548160ff0219169083151502179055507fc82bdbbf677a2462f2a7e22e4ba9abd209496b69cd7b868b3b1d28f76e09a40a81336040516114bf929190613cc5565b60405180910390a160018260030160006101000a81548160ff0219169083151502179055505b505050565b600760003373ffffffffffffffffffffffffffffffffffffffff1673ffffffffffffffffffffffffffffffffffffffff16815260200190815260200160002060009054906101000a900460ff16611576576040517f08c379a000000000000000000000000000000000000000000000000000000000815260040161156d90613f58565b60405180910390fd5b6000600c82815481106115b2577f4e487b7100000000000000000000000000000000000000000000000000000000600052603260045260246000fd5b9060005260206000209060050201600101541015611605576040517f08c379a00000000000000000000000000000000000000000000000000000000081526004016115fc90613ff8565b60405180910390fd5b60001515600860003373ffffffffffffffffffffffffffffffffffffffff1673ffffffffffffffffffffffffffffffffffffffff168152602001908152602001600020600083815260200190815260200160002060009054906101000a900460ff161515146116a9576040517f08c379a00000000000000000000000000000000000000000000000000000000081526004016116a090613f78565b60405180910390fd5b6000600c82815481106116e5577f4e487b7100000000000000000000000000000000000000000000000000000000600052603260045260246000fd5b906000526020600020906005020190508060040160009054906101000a900460ff1615611747576040517f08c379a000000000000000000000000000000000000000000000000000000000815260040161173e90613f18565b60405180910390fd5b600181600301600082825461175c91906141a3565b925050819055506001600860003373ffffffffffffffffffffffffffffffffffffffff1673ffffffffffffffffffffffffffffffffffffffff168152602001908152602001600020600084815260200190815260200160002060006101000a81548160ff02191690831515021790555060015481600301541061192f5760008160000160009054906101000a900473ffffffffffffffffffffffffffffffffffffffff1673ffffffffffffffffffffffffffffffffffffffff16826001015460405161182790613c95565b60006040518083038185875af1925050503d8060008114611864576040519150601f19603f3d011682016040523d82523d6000602084013e611869565b606091505b50509050806118ad576040517f08c379a00000000000000000000000000000000000000000000000000000000081526004016118a490613f98565b60405180910390fd5b60018260040160006101000a81548160ff0219169083151502179055507fdbc89b48909bf05358f55dec405c6da4b03a8ff07fbe1182287c931ef0880f268260000160009054906101000a900473ffffffffffffffffffffffffffffffffffffffff1683600101543360405161192593929190613d17565b60405180910390a1505b5050565b600760003373ffffffffffffffffffffffffffffffffffffffff1673ffffffffffffffffffffffffffffffffffffffff16815260200190815260200160002060009054906101000a900460ff166119bf576040517f08c379a00000000000000000000000000000000000000000000000000000000081526004016119b690613f58565b60405180910390fd5b60001515600a60003373ffffffffffffffffffffffffffffffffffffffff1673ffffffffffffffffffffffffffffffffffffffff168152602001908152602001600020600083815260200190815260200160002060009054906101000a900460ff16151514611a63576040517f08c379a0000000000000000000000000000000000000000000000000000000008152600401611a5a90613f78565b60405180910390fd5b6000600e8281548110611a9f577f4e487b7100000000000000000000000000000000000000000000000000000000600052603260045260246000fd5b906000526020600020906004020190508060030160009054906101000a900460ff1615611b01576040517f08c379a0000000000000000000000000000000000000000000000000000000008152600401611af890613f18565b60405180910390fd5b60008160000160009054906101000a900473ffffffffffffffffffffffffffffffffffffffff1690506001826002016000828254611b3f91906141a3565b925050819055506001600a60003373ffffffffffffffffffffffffffffffffffffffff1673ffffffffffffffffffffffffffffffffffffffff168152602001908152602001600020600085815260200190815260200160002060006101000a81548160ff021916908315150217905550600154826002015410611dfc57600080600090505b600680549050811015611d3c578273ffffffffffffffffffffffffffffffffffffffff1660068281548110611c22577f4e487b7100000000000000000000000000000000000000000000000000000000600052603260045260246000fd5b9060005260206000200160009054906101000a900473ffffffffffffffffffffffffffffffffffffffff1673ffffffffffffffffffffffffffffffffffffffff161415611d295780915060006007600060068481548110611cac577f4e487b7100000000000000000000000000000000000000000000000000000000600052603260045260246000fd5b9060005260206000200160009054906101000a900473ffffffffffffffffffffffffffffffffffffffff1673ffffffffffffffffffffffffffffffffffffffff1673ffffffffffffffffffffffffffffffffffffffff16815260200190815260200160002060006101000a81548160ff0219169083151502179055505b8080611d3490614275565b915050611bc4565b5060068181548110611d77577f4e487b7100000000000000000000000000000000000000000000000000000000600052603260045260246000fd5b9060005260206000200160006101000a81549073ffffffffffffffffffffffffffffffffffffffff02191690557fe594d081b4382713733fe631966432c9cea5199afb2db5c3c1931f9f930036798233604051611dd5929190613cc5565b60405180910390a160018360030160006101000a81548160ff021916908315150217905550505b505050565b6060600760003373ffffffffffffffffffffffffffffffffffffffff1673ffffffffffffffffffffffffffffffffffffffff16815260200190815260200160002060009054906101000a900460ff16611e8f576040517f08c379a0000000000000000000000000000000000000000000000000000000008152600401611e8690613f58565b60405180910390fd5b6000611e99613076565b90506000815167ffffffffffffffff811115611ede577f4e487b7100000000000000000000000000000000000000000000000000000000600052604160045260246000fd5b604051908082528060200260200182016040528015611f1757816020015b611f046134e0565b815260200190600190039081611efc5790505b50905060005b825181101561209557600e838281518110611f61577f4e487b7100000000000000000000000000000000000000000000000000000000600052603260045260246000fd5b602002602001015181548110611fa0577f4e487b7100000000000000000000000000000000000000000000000000000000600052603260045260246000fd5b90600052602060002090600402016040518060800160405290816000820160009054906101000a900473ffffffffffffffffffffffffffffffffffffffff1673ffffffffffffffffffffffffffffffffffffffff1673ffffffffffffffffffffffffffffffffffffffff16815260200160018201548152602001600282015481526020016003820160009054906101000a900460ff161515151581525050828281518110612077577f4e487b7100000000000000000000000000000000000000000000000000000000600052603260045260246000fd5b6020026020010181905250808061208d90614275565b915050611f1d565b50809250505090565b600760003373ffffffffffffffffffffffffffffffffffffffff1673ffffffffffffffffffffffffffffffffffffffff16815260200190815260200160002060009054906101000a900460ff1661212a576040517f08c379a000000000000000000000000000000000000000000000000000000000815260040161212190613f58565b60405180910390fd5b6000600d8281548110612166577f4e487b7100000000000000000000000000000000000000000000000000000000600052603260045260246000fd5b906000526020600020906004020160000154116121b8576040517f08c379a00000000000000000000000000000000000000000000000000000000081526004016121af90613ff8565b60405180910390fd5b60001515600960003373ffffffffffffffffffffffffffffffffffffffff1673ffffffffffffffffffffffffffffffffffffffff168152602001908152602001600020600083815260200190815260200160002060009054906101000a900460ff1615151461225c576040517f08c379a000000000000000000000000000000000000000000000000000000000815260040161225390613e18565b60405180910390fd5b6000600d8281548110612298577f4e487b7100000000000000000000000000000000000000000000000000000000600052603260045260246000fd5b906000526020600020906004020190508060030160009054906101000a900460ff16156122fa576040517f08c379a00000000000000000000000000000000000000000000000000000000081526004016122f190613f18565b60405180910390fd5b600181600201600082825461230f91906141a3565b925050819055506001600960003373ffffffffffffffffffffffffffffffffffffffff1673ffffffffffffffffffffffffffffffffffffffff168152602001908152602001600020600084815260200190815260200160002060006101000a81548160ff0219169083151502179055506001548160020154106123f6577f3e7711649d931413ac3a01771ed77691a6a5ee237e4d6a94e60957e92e0828d26001548260000154336040516123c593929190614033565b60405180910390a1806000015460018190555060018160030160006101000a81548160ff0219169083151502179055505b5050565b600760003373ffffffffffffffffffffffffffffffffffffffff1673ffffffffffffffffffffffffffffffffffffffff16815260200190815260200160002060009054906101000a900460ff16612486576040517f08c379a000000000000000000000000000000000000000000000000000000000815260040161247d90613f58565b60405180910390fd5b804710156124c9576040517f08c379a00000000000000000000000000000000000000000000000000000000081526004016124c090613e58565b60405180910390fd5b600073ffffffffffffffffffffffffffffffffffffffff168273ffffffffffffffffffffffffffffffffffffffff161415612539576040517f08c379a000000000000000000000000000000000000000000000000000000000815260040161253090613eb8565b60405180910390fd5b6000811161257c576040517f08c379a000000000000000000000000000000000000000000000000000000000815260040161257390613df8565b60405180910390fd5b600c6040518060a001604052808473ffffffffffffffffffffffffffffffffffffffff16815260200183815260200160025481526020016000815260200160001515815250908060018154018082558091505060019003906000526020600020906005020160009091909190915060008201518160000160006101000a81548173ffffffffffffffffffffffffffffffffffffffff021916908373ffffffffffffffffffffffffffffffffffffffff16021790555060208201518160010155604082015181600201556060820151816003015560808201518160040160006101000a81548160ff021916908315150217905550505060016002600082825461268491906141a3565b925050819055505050565b60606000600680549050116126d9576040517f08c379a00000000000000000000000000000000000000000000000000000000081526004016126d090613fd8565b60405180910390fd5b600080600090505b6006805490508110156127a957600073ffffffffffffffffffffffffffffffffffffffff1660068281548110612740577f4e487b7100000000000000000000000000000000000000000000000000000000600052603260045260246000fd5b9060005260206000200160009054906101000a900473ffffffffffffffffffffffffffffffffffffffff1673ffffffffffffffffffffffffffffffffffffffff16146127965760018261279391906141a3565b91505b80806127a190614275565b9150506126e1565b5060008167ffffffffffffffff8111156127ec577f4e487b7100000000000000000000000000000000000000000000000000000000600052604160045260246000fd5b60405190808252806020026020018201604052801561281a5781602001602082028036833780820191505090505b509050600080600090505b6006805490508110156129c557600073ffffffffffffffffffffffffffffffffffffffff1660068281548110612884577f4e487b7100000000000000000000000000000000000000000000000000000000600052603260045260246000fd5b9060005260206000200160009054906101000a900473ffffffffffffffffffffffffffffffffffffffff1673ffffffffffffffffffffffffffffffffffffffff16146129b25760068181548110612904577f4e487b7100000000000000000000000000000000000000000000000000000000600052603260045260246000fd5b9060005260206000200160009054906101000a900473ffffffffffffffffffffffffffffffffffffffff16838381518110612968577f4e487b7100000000000000000000000000000000000000000000000000000000600052603260045260246000fd5b602002602001019073ffffffffffffffffffffffffffffffffffffffff16908173ffffffffffffffffffffffffffffffffffffffff16815250506001826129af91906141a3565b91505b80806129bd90614275565b915050612825565b5081935050505090565b6060600760003373ffffffffffffffffffffffffffffffffffffffff1673ffffffffffffffffffffffffffffffffffffffff16815260200190815260200160002060009054906101000a900460ff16612a5d576040517f08c379a0000000000000000000000000000000000000000000000000000000008152600401612a5490613f58565b60405180910390fd5b6000612a67613276565b90506000815167ffffffffffffffff811115612aac577f4e487b7100000000000000000000000000000000000000000000000000000000600052604160045260246000fd5b604051908082528060200260200182016040528015612ae557816020015b612ad2613520565b815260200190600190039081612aca5790505b50905060005b8251811015612c6d57600c838281518110612b2f577f4e487b7100000000000000000000000000000000000000000000000000000000600052603260045260246000fd5b602002602001015181548110612b6e577f4e487b7100000000000000000000000000000000000000000000000000000000600052603260045260246000fd5b90600052602060002090600502016040518060a00160405290816000820160009054906101000a900473ffffffffffffffffffffffffffffffffffffffff1673ffffffffffffffffffffffffffffffffffffffff1673ffffffffffffffffffffffffffffffffffffffff1681526020016001820154815260200160028201548152602001600382015481526020016004820160009054906101000a900460ff161515151581525050828281518110612c4f577f4e487b7100000000000000000000000000000000000000000000000000000000600052603260045260246000fd5b60200260200101819052508080612c6590614275565b915050612aeb565b50809250505090565b6060600080600090505b600f80549050811015612d155760001515600f8281548110612ccb577f4e487b7100000000000000000000000000000000000000000000000000000000600052603260045260246000fd5b906000526020600020906004020160030160009054906101000a900460ff1615151415612d0257600182612cff91906141a3565b91505b8080612d0d90614275565b915050612c80565b5060008167ffffffffffffffff811115612d58577f4e487b7100000000000000000000000000000000000000000000000000000000600052604160045260246000fd5b604051908082528060200260200182016040528015612d865781602001602082028036833780820191505090505b509050600080600090505b600f80549050811015612e6c5760001515600f8281548110612ddc577f4e487b7100000000000000000000000000000000000000000000000000000000600052603260045260246000fd5b906000526020600020906004020160030160009054906101000a900460ff1615151415612e595780838381518110612e3d577f4e487b7100000000000000000000000000000000000000000000000000000000600052603260045260246000fd5b602002602001018181525050600182612e5691906141a3565b91505b8080612e6490614275565b915050612d91565b5081935050505090565b6060600080600090505b600d80549050811015612f155760001515600d8281548110612ecb577f4e487b7100000000000000000000000000000000000000000000000000000000600052603260045260246000fd5b906000526020600020906004020160030160009054906101000a900460ff1615151415612f0257600182612eff91906141a3565b91505b8080612f0d90614275565b915050612e80565b5060008167ffffffffffffffff811115612f58577f4e487b7100000000000000000000000000000000000000000000000000000000600052604160045260246000fd5b604051908082528060200260200182016040528015612f865781602001602082028036833780820191505090505b509050600080600090505b600d8054905081101561306c5760001515600d8281548110612fdc577f4e487b7100000000000000000000000000000000000000000000000000000000600052603260045260246000fd5b906000526020600020906004020160030160009054906101000a900460ff1615151415613059578083838151811061303d577f4e487b7100000000000000000000000000000000000000000000000000000000600052603260045260246000fd5b60200260200101818152505060018261305691906141a3565b91505b808061306490614275565b915050612f91565b5081935050505090565b6060600080600090505b600e805490508110156131155760001515600e82815481106130cb577f4e487b7100000000000000000000000000000000000000000000000000000000600052603260045260246000fd5b906000526020600020906004020160030160009054906101000a900460ff1615151415613102576001826130ff91906141a3565b91505b808061310d90614275565b915050613080565b5060008167ffffffffffffffff811115613158577f4e487b7100000000000000000000000000000000000000000000000000000000600052604160045260246000fd5b6040519080825280602002602001820160405280156131865781602001602082028036833780820191505090505b509050600080600090505b600e8054905081101561326c5760001515600e82815481106131dc577f4e487b7100000000000000000000000000000000000000000000000000000000600052603260045260246000fd5b906000526020600020906004020160030160009054906101000a900460ff1615151415613259578083838151811061323d577f4e487b7100000000000000000000000000000000000000000000000000000000600052603260045260246000fd5b60200260200101818152505060018261325691906141a3565b91505b808061326490614275565b915050613191565b5081935050505090565b6060600080600090505b600c805490508110156133155760001515600c82815481106132cb577f4e487b7100000000000000000000000000000000000000000000000000000000600052603260045260246000fd5b906000526020600020906005020160040160009054906101000a900460ff1615151415613302576001826132ff91906141a3565b91505b808061330d90614275565b915050613280565b5060008167ffffffffffffffff811115613358577f4e487b7100000000000000000000000000000000000000000000000000000000600052604160045260246000fd5b6040519080825280602002602001820160405280156133865781602001602082028036833780820191505090505b509050600080600090505b600c8054905081101561346c5760001515600c82815481106133dc577f4e487b7100000000000000000000000000000000000000000000000000000000600052603260045260246000fd5b906000526020600020906005020160040160009054906101000a900460ff1615151415613459578083838151811061343d577f4e487b7100000000000000000000000000000000000000000000000000000000600052603260045260246000fd5b60200260200101818152505060018261345691906141a3565b91505b808061346490614275565b915050613391565b5081935050505090565b6040518060800160405280600073ffffffffffffffffffffffffffffffffffffffff16815260200160008152602001600081526020016000151581525090565b60405180608001604052806000815260200160008152602001600081526020016000151581525090565b6040518060800160405280600073ffffffffffffffffffffffffffffffffffffffff16815260200160008152602001600081526020016000151581525090565b6040518060a00160405280600073ffffffffffffffffffffffffffffffffffffffff1681526020016000815260200160008152602001600081526020016000151581525090565b60008135905061357681614641565b92915050565b60008135905061358b81614658565b92915050565b6000602082840312156135a357600080fd5b60006135b184828501613567565b91505092915050565b600080604083850312156135cd57600080fd5b60006135db85828601613567565b92505060206135ec8582860161357c565b9150509250929050565b60006020828403121561360857600080fd5b60006136168482850161357c565b91505092915050565b600061362b8383613697565b60208301905092915050565b60006136438383613b10565b60808301905092915050565b600061365b8383613b65565b60808301905092915050565b60006136738383613bba565b60a08301905092915050565b600061368b8383613c22565b60808301905092915050565b6136a08161422d565b82525050565b6136af8161422d565b82525050565b60006136c0826140ba565b6136ca8185614132565b93506136d58361406a565b8060005b838110156137065781516136ed888261361f565b97506136f8836140f1565b9250506001810190506136d9565b5085935050505092915050565b600061371e826140c5565b6137288185614143565b93506137338361407a565b8060005b8381101561376457815161374b8882613637565b9750613756836140fe565b925050600181019050613737565b5085935050505092915050565b600061377c826140d0565b6137868185614154565b93506137918361408a565b8060005b838110156137c25781516137a9888261364f565b97506137b48361410b565b925050600181019050613795565b5085935050505092915050565b60006137da826140db565b6137e48185614165565b93506137ef8361409a565b8060005b838110156138205781516138078882613667565b975061381283614118565b9250506001810190506137f3565b5085935050505092915050565b6000613838826140e6565b6138428185614176565b935061384d836140aa565b8060005b8381101561387e578151613865888261367f565b975061387083614125565b925050600181019050613851565b5085935050505092915050565b6138948161423f565b82525050565b60006138a7601183614192565b91506138b2826142ed565b602082019050919050565b60006138ca602583614192565b91506138d582614316565b604082019050919050565b60006138ed602c83614192565b91506138f882614365565b604082019050919050565b6000613910601083614192565b915061391b826143b4565b602082019050919050565b6000613933602083614192565b915061393e826143dd565b602082019050919050565b6000613956601783614192565b915061396182614406565b602082019050919050565b6000613979601a83614192565b91506139848261442f565b602082019050919050565b600061399c601e83614192565b91506139a782614458565b602082019050919050565b60006139bf601183614192565b91506139ca82614481565b602082019050919050565b60006139e2601c83614192565b91506139ed826144aa565b602082019050919050565b6000613a05602283614192565b9150613a10826144d3565b604082019050919050565b6000613a28600983614192565b9150613a3382614522565b602082019050919050565b6000613a4b602383614192565b9150613a568261454b565b604082019050919050565b6000613a6e601283614192565b9150613a798261459a565b602082019050919050565b6000613a91600083614187565b9150613a9c826145c3565b600082019050919050565b6000613ab4601883614192565b9150613abf826145c6565b602082019050919050565b6000613ad7601a83614192565b9150613ae2826145ef565b602082019050919050565b6000613afa601b83614192565b9150613b0582614618565b602082019050919050565b608082016000820151613b266000850182613697565b506020820151613b396020850182613c77565b506040820151613b4c6040850182613c77565b506060820151613b5f606085018261388b565b50505050565b608082016000820151613b7b6000850182613697565b506020820151613b8e6020850182613c77565b506040820151613ba16040850182613c77565b506060820151613bb4606085018261388b565b50505050565b60a082016000820151613bd06000850182613697565b506020820151613be36020850182613c77565b506040820151613bf66040850182613c77565b506060820151613c096060850182613c77565b506080820151613c1c608085018261388b565b50505050565b608082016000820151613c386000850182613c77565b506020820151613c4b6020850182613c77565b506040820151613c5e6040850182613c77565b506060820151613c71606085018261388b565b50505050565b613c808161426b565b82525050565b613c8f8161426b565b82525050565b6000613ca082613a84565b9150819050919050565b6000602082019050613cbf60008301846136a6565b92915050565b6000604082019050613cda60008301856136a6565b613ce760208301846136a6565b9392505050565b6000604082019050613d0360008301856136a6565b613d106020830184613c86565b9392505050565b6000606082019050613d2c60008301866136a6565b613d396020830185613c86565b613d4660408301846136a6565b949350505050565b60006020820190508181036000830152613d6881846136b5565b905092915050565b60006020820190508181036000830152613d8a8184613713565b905092915050565b60006020820190508181036000830152613dac8184613771565b905092915050565b60006020820190508181036000830152613dce81846137cf565b905092915050565b60006020820190508181036000830152613df0818461382d565b905092915050565b60006020820190508181036000830152613e118161389a565b9050919050565b60006020820190508181036000830152613e31816138bd565b9050919050565b60006020820190508181036000830152613e51816138e0565b9050919050565b60006020820190508181036000830152613e7181613903565b9050919050565b60006020820190508181036000830152613e9181613926565b9050919050565b60006020820190508181036000830152613eb181613949565b9050919050565b60006020820190508181036000830152613ed18161396c565b9050919050565b60006020820190508181036000830152613ef18161398f565b9050919050565b60006020820190508181036000830152613f11816139b2565b9050919050565b60006020820190508181036000830152613f31816139d5565b9050919050565b60006020820190508181036000830152613f51816139f8565b9050919050565b60006020820190508181036000830152613f7181613a1b565b9050919050565b60006020820190508181036000830152613f9181613a3e565b9050919050565b60006020820190508181036000830152613fb181613a61565b9050919050565b60006020820190508181036000830152613fd181613aa7565b9050919050565b60006020820190508181036000830152613ff181613aca565b9050919050565b6000602082019050818103600083015261401181613aed565b9050919050565b600060208201905061402d6000830184613c86565b92915050565b60006060820190506140486000830186613c86565b6140556020830185613c86565b61406260408301846136a6565b949350505050565b6000819050602082019050919050565b6000819050602082019050919050565b6000819050602082019050919050565b6000819050602082019050919050565b6000819050602082019050919050565b600081519050919050565b600081519050919050565b600081519050919050565b600081519050919050565b600081519050919050565b6000602082019050919050565b6000602082019050919050565b6000602082019050919050565b6000602082019050919050565b6000602082019050919050565b600082825260208201905092915050565b600082825260208201905092915050565b600082825260208201905092915050565b600082825260208201905092915050565b600082825260208201905092915050565b600081905092915050565b600082825260208201905092915050565b60006141ae8261426b565b91506141b98361426b565b9250827fffffffffffffffffffffffffffffffffffffffffffffffffffffffffffffffff038211156141ee576141ed6142be565b5b828201905092915050565b60006142048261426b565b915061420f8361426b565b925082821015614222576142216142be565b5b828203905092915050565b60006142388261424b565b9050919050565b60008115159050919050565b600073ffffffffffffffffffffffffffffffffffffffff82169050919050565b6000819050919050565b60006142808261426b565b91507fffffffffffffffffffffffffffffffffffffffffffffffffffffffffffffffff8214156142b3576142b26142be565b5b600182019050919050565b7f4e487b7100000000000000000000000000000000000000000000000000000000600052601160045260246000fd5b7f56616c75652063616e6e6f742062652030000000000000000000000000000000600082015250565b7f4f776e657220616c7265616479207369676e65642074686973207472616e736160008201527f6374696f6e000000000000000000000000000000000000000000000000000000602082015250565b7f5468657265206e6565647320746f206265206d6f7265206f776e65727320746860008201527f616e207468726573686f6c640000000000000000000000000000000000000000602082015250565b7f4e6f7420656e6f7567682066756e647300000000000000000000000000000000600082015250565b7f596f75206e656564206174206c65617374207468726573686f6c64206f662031600082015250565b7f41646472657373206973206e6f7420616e206f776e6572000000000000000000600082015250565b7f61646472657373207a65726f206e6f7420737570706f72746564000000000000600082015250565b7f7468726573686f6c64206578636565647320746f74616c206f776e6572730000600082015250565b7f496e636f72726563742061646472657373000000000000000000000000000000600082015250565b7f5472616e73616374696f6e20616c726561647920617070726f76656400000000600082015250565b7f5468657265206e6565647320746f206265206174206c656173742031206f776e60008201527f6572000000000000000000000000000000000000000000000000000000000000602082015250565b7f4e6f74206f776e65720000000000000000000000000000000000000000000000600082015250565b7f596f7520616c7265616479207369676e65642074686973207472616e7361637460008201527f696f6e0000000000000000000000000000000000000000000000000000000000602082015250565b7f5472616e73616374696f6e206661696c65640000000000000000000000000000600082015250565b50565b7f6164647265737320616c726561647920616e206f776e65720000000000000000600082015250565b7f30206f776e657273206e6f742076616c69642c204552524f5221000000000000600082015250565b7f5472616e73616374696f6e20646f6573206e6f74206578697374730000000000600082015250565b61464a8161422d565b811461465557600080fd5b50565b6146618161426b565b811461466c57600080fd5b5056fea2646970667358221220bfb761447cb0b0b825e9ec2a11f7b7f6fed6c67db40b85d65a263792c8d0f41a64736f6c63430008030033",
  "linkReferences": {},
  "deployedLinkReferences": {}
}